{
  "_format": "hh-sol-artifact-1",
  "contractName": "Miner",
  "sourceName": "contracts/Miner.sol",
  "abi": [
    {
      "inputs": [],
      "stateMutability": "nonpayable",
      "type": "constructor"
    },
    {
      "anonymous": false,
      "inputs": [
        {
          "indexed": false,
          "internalType": "string",
          "name": "dwarf",
          "type": "string"
        }
      ],
      "name": "NewDwarf",
      "type": "event"
    },
    {
      "inputs": [
        {
          "internalType": "uint16",
          "name": "_dwarf",
          "type": "uint16"
        }
      ],
      "name": "changeDwarf",
      "outputs": [],
      "stateMutability": "nonpayable",
      "type": "function"
    },
    {
      "inputs": [],
      "name": "getCurrentDwarf",
      "outputs": [
        {
          "internalType": "string",
          "name": "",
          "type": "string"
        }
      ],
      "stateMutability": "view",
      "type": "function"
    },
    {
      "inputs": [],
      "name": "owner",
      "outputs": [
        {
          "internalType": "address",
          "name": "",
          "type": "address"
        }
      ],
      "stateMutability": "view",
      "type": "function"
    }
  ],
  "bytecode": "0x60806040526040518060e001604052806040518060400160405280600781526020017f4261736866756c0000000000000000000000000000000000000000000000000081525081526020016040518060400160405280600381526020017f446f63000000000000000000000000000000000000000000000000000000000081525081526020016040518060400160405280600581526020017f446f70657900000000000000000000000000000000000000000000000000000081525081526020016040518060400160405280600681526020017f4772756d7079000000000000000000000000000000000000000000000000000081525081526020016040518060400160405280600581526020017f486170707900000000000000000000000000000000000000000000000000000081525081526020016040518060400160405280600681526020017f536c65657079000000000000000000000000000000000000000000000000000081525081526020016040518060400160405280600681526020017f536e65657a7900000000000000000000000000000000000000000000000000008152508152506001906007620001bc9291906200026b565b50348015620001ca57600080fd5b50336000806101000a81548173ffffffffffffffffffffffffffffffffffffffff021916908373ffffffffffffffffffffffffffffffffffffffff1602179055506001806007811062000246577f4e487b7100000000000000000000000000000000000000000000000000000000600052603260045260246000fd5b01600890805462000257906200047b565b62000264929190620002c5565b50620004e0565b8260078101928215620002b2579160200282015b82811115620002b1578251829080519060200190620002a09291906200035d565b50916020019190600101906200027f565b5b509050620002c19190620003ee565b5090565b828054620002d3906200047b565b90600052602060002090601f016020900481019282620002f757600085556200034a565b82601f106200030a57805485556200034a565b828001600101855582156200034a57600052602060002091601f016020900482015b82811115620003495782548255916001019190600101906200032c565b5b50905062000359919062000416565b5090565b8280546200036b906200047b565b90600052602060002090601f0160209004810192826200038f5760008555620003db565b82601f10620003aa57805160ff1916838001178555620003db565b82800160010185558215620003db579182015b82811115620003da578251825591602001919060010190620003bd565b5b509050620003ea919062000416565b5090565b5b8082111562000412576000818162000408919062000435565b50600101620003ef565b5090565b5b808211156200043157600081600090555060010162000417565b5090565b50805462000443906200047b565b6000825580601f1062000457575062000478565b601f01602090049060005260206000209081019062000477919062000416565b5b50565b600060028204905060018216806200049457607f821691505b60208210811415620004ab57620004aa620004b1565b5b50919050565b7f4e487b7100000000000000000000000000000000000000000000000000000000600052602260045260246000fd5b61053780620004f06000396000f3fe608060405234801561001057600080fd5b50600436106100415760003560e01c8063056267c51461004657806365ea754e146100645780638da5cb5b14610080575b600080fd5b61004e61009e565b60405161005b91906103c7565b60405180910390f35b61007e6004803603810190610079919061033b565b610130565b005b61008861025f565b60405161009591906103ac565b60405180910390f35b6060600880546100ad90610478565b80601f01602080910402602001604051908101604052809291908181526020018280546100d990610478565b80156101265780601f106100fb57610100808354040283529160200191610126565b820191906000526020600020905b81548152906001019060200180831161010957829003601f168201915b5050505050905090565b60078161ffff161061014157600080fd5b600060018261ffff1660078110610181577f4e487b7100000000000000000000000000000000000000000000000000000000600052603260045260246000fd5b01805461018d90610478565b80601f01602080910402602001604051908101604052809291908181526020018280546101b990610478565b80156102065780601f106101db57610100808354040283529160200191610206565b820191906000526020600020905b8154815290600101906020018083116101e957829003601f168201915b505050505090508060089080519060200190610223929190610283565b507ff69805f28ec7815900d15957433ea62fba4ddd3a3038086a803b4bd43eb5364e8160405161025391906103c7565b60405180910390a15050565b60008054906101000a900473ffffffffffffffffffffffffffffffffffffffff1681565b82805461028f90610478565b90600052602060002090601f0160209004810192826102b157600085556102f8565b82601f106102ca57805160ff19168380011785556102f8565b828001600101855582156102f8579182015b828111156102f75782518255916020019190600101906102dc565b5b5090506103059190610309565b5090565b5b8082111561032257600081600090555060010161030a565b5090565b600081359050610335816104ea565b92915050565b60006020828403121561034d57600080fd5b600061035b84828501610326565b91505092915050565b61036d81610405565b82525050565b600061037e826103e9565b61038881856103f4565b9350610398818560208601610445565b6103a1816104d9565b840191505092915050565b60006020820190506103c16000830184610364565b92915050565b600060208201905081810360008301526103e18184610373565b905092915050565b600081519050919050565b600082825260208201905092915050565b600061041082610425565b9050919050565b600061ffff82169050919050565b600073ffffffffffffffffffffffffffffffffffffffff82169050919050565b60005b83811015610463578082015181840152602081019050610448565b83811115610472576000848401525b50505050565b6000600282049050600182168061049057607f821691505b602082108114156104a4576104a36104aa565b5b50919050565b7f4e487b7100000000000000000000000000000000000000000000000000000000600052602260045260246000fd5b6000601f19601f8301169050919050565b6104f381610417565b81146104fe57600080fd5b5056fea2646970667358221220d3ebcc56ac834cedb54dbc6926f8dd9e455da373ebdc49651c754cf7ed7389b964736f6c63430008040033",
  "linkReferences": {},
  "deployedLinkReferences": {}
}